:1000000045C00000BEC00000DCC00000F6C000001B
:100010000CC1000021C1000056C0000054C0000007
:1000200052C0000050C000004FC000004CC0000093
:100030004AC0000048C0000046C0000044C00000A4
:1000400042C0000040C000006DC000003CC0000085
:100050003AC0000038C0000036C0000034C00000C4
:1000600032C0000030C000002EC000002CC00000D4
:100070002AC0000028C0000026C0000024C00000E4
:1000800022C0000020C000001EC0000011241FBEBE
:10009000CFEFD0E1DEBFCDBF11E0A0E0B1E0E2EEF6
:1000A000F5E000E00BBF02C007900D92A031B10750
:1000B000D9F721E0A0E1B1E001C01D92A431B2075F
:1000C000E1F70CD18CC29CCF1F920F920FB60F920A
:1000D00011240BB60F922F933F934F935F936F931F
:1000E0007F938F939F93AF93BF93EF93FF93FCD135
:1000F00085E058D172D18AE068D18DE066D1FF9158
:10010000EF91BF91AF919F918F917F916F915F918F
:100110004F913F912F910F900BBE0F900FBE0F90FC
:100120001F9018951F920F920FB60F9211240BB6C5
:100130000F922F933F934F935F936F937F938F9380
:100140009F93AF93BF93EF93FF9343D1813321F4F8
:1001500081E08093000102C010920001FF91EF91B5
:10016000BF91AF919F918F917F916F915F914F91CF
:100170003F912F910F900BBE0F900FBE0F901F90CD
:1001800018951F920F920FB60F9211240BB60F9273
:100190008F939F93EF93FF93E2E6F0E08081806876
:1001A00080838AB59BB5C2969BBD8ABDFF91EF91B6
:1001B0009F918F910F900BBE0F900FBE0F901F90CD
:1001C00018951F920F920FB60F9211240BB60F9233
:1001D0008F93EF93FF93E2E6F0E080818F77808347
:1001E00089EF8BBB1A9AFF91EF918F910F900BBE05
:1001F0000F900FBE0F901F9018951F920F920FB681
:100200000F9211248F939F93C29884EA8BBB1A9804
:1002100082E290E090937900809378009F918F9193
:100220000F900FBE0F901F9018951F920F920FB650
:100230000F9211248F939F93C39880E590E0909341
:1002400079008093780080EB8BBB9F918F910F900A
:100250000FBE0F901F9018951F920F920FB60F921E
:1002600011242F933F936F937F938F939F93AF931B
:10027000BF938AB783708230F1F4809188009091A7
:100280008900909313018093120120911201309103
:100290001301AFE9B6E45ED1969587959295829564
:1002A0008F7089279F708927909311018093100187
:1002B00083E08ABF06C0109289001092880082E015
:1002C0008ABFBF91AF919F918F917F916F913F9125
:1002D0002F910F900FBE0F901F901895CF93DF9323
:1002E000CDB7DEB72F970FB6F894DEBF0FBECDBFE8
:1002F0008FE0E1E0F1E0DE01119601900D928A9528
:10030000E1F717D01FD056D0C5D025D037D03BD07D
:1003100041D02FEF89E698E1215080409040E1F7ED
:1003200000C00000CE010196D1D080EC9DD0789421
:10033000FFCF8FEF8ABB87BB9EE292B988BB8BBB96
:100340001D98089511BA8AEA80936A008CE08ABFEA
:100350008FE189BF08958AEA8FBD8CE18EBD82EE60
:1003600094E097BD86BD1BBC1ABC99BD88BD80E5D5
:1003700090E09093790080937800089585E085BDA2
:1003800080E487BF089580E880938B0082E08093AB
:100390008A00089580E88093610080E487B987E847
:1003A00086B90895806487B9369A349BFECF84B1AC
:1003B00095B108958EE282B91BB888E98AB986E0C2
:1003C0008093950088E089B908955D9BFECF8CB934
:1003D00008955F9BFECF8CB108950F931F93CF9329
:1003E000DF93EC0199232CF48DE2EFDFD195C195D9
:1003F000D109BE010D2E000C880B990B20EA36E8BE
:1004000041E050E08BD020E137E240E050E086D080
:1004100080E3820FDADFCE0160E177E26CD008EE94
:1004200013E0B80168D080E3860FCFDFCE01B801BA
:1004300062D004E610E0B8015ED080E3860FC5DF2D
:10044000CE01B80158D00AE010E0B80154D080E3E2
:10045000860FBBDFCE01B8014ED0805DB6DFDF91E5
:10046000CF911F910F910895E5E6F0E094E090831D
:1004700085BB90819B7F9083813039F48FE39FE12E
:100480000197F1F700C00000089595ED9A95F1F7F6
:10049000000008958FEF84BB8093640088E3E4DF5D
:1004A00086E0E2DF8CE0E0DF81E0DECF0895E5E684
:1004B000F0E095E0908385BB80818B7F808387EC23
:1004C00090E00197F1F700C000000895CF93DF930B
:1004D000EC018881882329F02196E9DF8991811137
:1004E000FCCFDF91CF9108951D9A85E38A95F1F7AE
:1004F00000001D98089597FB072E16F4009406D06F
:1005000077FD08D036D007FC05D03EF49095819554
:100510009F4F0895709561957F4F0895052E97FB25
:1005200016F400940FD057FD05D037D007FC02D049
:1005300046F408C050954095309521953F4F4F4F58
:100540005F4F089590958095709561957F4F8F4F7F
:100550009F4F0895A29FB001B39FC001A39F700D4C
:10056000811D1124911DB29F700D811D1124911DBB
:100570000895AA1BBB1B51E107C0AA1FBB1FA617EA
:10058000B70710F0A61BB70B881F991F5A95A9F73C
:1005900080959095BC01CD010895A1E21A2EAA1B69
:1005A000BB1BFD010DC0AA1FBB1FEE1FFF1FA21723
:1005B000B307E407F50720F0A21BB30BE40BF50B20
:1005C000661F771F881F991F1A9469F760957095A9
:1005D000809590959B01AC01BD01CF010895F894E1
:0205E000FFCF4B
:1005E20001536D6172742D456C657661746F720092
:00000001FF
